{
	"contracts/3_Ballot.sol": {
		"prototype": {
			"abi": [
				{
					"inputs": [],
					"stateMutability": "nonpayable",
					"type": "constructor"
				},
				{
					"inputs": [],
					"name": "admin",
					"outputs": [
						{
							"internalType": "address",
							"name": "",
							"type": "address"
						}
					],
					"stateMutability": "view",
					"type": "function"
				},
				{
					"inputs": [
						{
							"internalType": "address",
							"name": "",
							"type": "address"
						}
					],
					"name": "balance",
					"outputs": [
						{
							"internalType": "uint256",
							"name": "",
							"type": "uint256"
						}
					],
					"stateMutability": "view",
					"type": "function"
				},
				{
					"inputs": [],
					"name": "deposit",
					"outputs": [],
					"stateMutability": "payable",
					"type": "function"
				},
				{
					"inputs": [
						{
							"internalType": "uint256",
							"name": "limit",
							"type": "uint256"
						}
					],
					"name": "setWithdrawlLimit",
					"outputs": [],
					"stateMutability": "nonpayable",
					"type": "function"
				},
				{
					"inputs": [],
					"name": "viewBalance",
					"outputs": [
						{
							"internalType": "uint256",
							"name": "",
							"type": "uint256"
						}
					],
					"stateMutability": "view",
					"type": "function"
				},
				{
					"inputs": [
						{
							"internalType": "uint256",
							"name": "debit",
							"type": "uint256"
						}
					],
					"name": "withdraw",
					"outputs": [],
					"stateMutability": "nonpayable",
					"type": "function"
				},
				{
					"inputs": [],
					"name": "withdrawlLimit",
					"outputs": [
						{
							"internalType": "uint256",
							"name": "",
							"type": "uint256"
						}
					],
					"stateMutability": "view",
					"type": "function"
				}
			],
			"devdoc": {
				"kind": "dev",
				"methods": {},
				"version": 1
			},
			"evm": {
				"assembly": "    /* \"contracts/3_Ballot.sol\":58:807  contract prototype{... */\n  mstore(0x40, 0x80)\n    /* \"contracts/3_Ballot.sol\":175:231  constructor(){... */\n  callvalue\n  dup1\n  iszero\n  tag_1\n  jumpi\n  0x00\n  dup1\n  revert\ntag_1:\n  pop\n    /* \"contracts/3_Ballot.sol\":198:208  msg.sender */\n  caller\n    /* \"contracts/3_Ballot.sol\":190:195  admin */\n  0x00\n  dup1\n    /* \"contracts/3_Ballot.sol\":190:208  admin = msg.sender */\n  0x0100\n  exp\n  dup2\n  sload\n  dup2\n  0xffffffffffffffffffffffffffffffffffffffff\n  mul\n  not\n  and\n  swap1\n  dup4\n  0xffffffffffffffffffffffffffffffffffffffff\n  and\n  mul\n  or\n  swap1\n  sstore\n  pop\n    /* \"contracts/3_Ballot.sol\":227:228  1 */\n  0x01\n    /* \"contracts/3_Ballot.sol\":210:224  withdrawlLimit */\n  0x02\n    /* \"contracts/3_Ballot.sol\":210:228  withdrawlLimit = 1 */\n  dup2\n  swap1\n  sstore\n  pop\n    /* \"contracts/3_Ballot.sol\":58:807  contract prototype{... */\n  dataSize(sub_0)\n  dup1\n  dataOffset(sub_0)\n  0x00\n  codecopy\n  0x00\n  return\nstop\n\nsub_0: assembly {\n        /* \"contracts/3_Ballot.sol\":58:807  contract prototype{... */\n      mstore(0x40, 0x80)\n      jumpi(tag_1, lt(calldatasize, 0x04))\n      shr(0xe0, calldataload(0x00))\n      dup1\n      0xce1bb61d\n      gt\n      tag_9\n      jumpi\n      dup1\n      0xce1bb61d\n      eq\n      tag_5\n      jumpi\n      dup1\n      0xd0e30db0\n      eq\n      tag_6\n      jumpi\n      dup1\n      0xe3d670d7\n      eq\n      tag_7\n      jumpi\n      dup1\n      0xf851a440\n      eq\n      tag_8\n      jumpi\n      jump(tag_1)\n    tag_9:\n      dup1\n      0x137631b9\n      eq\n      tag_2\n      jumpi\n      dup1\n      0x2e1a7d4d\n      eq\n      tag_3\n      jumpi\n      dup1\n      0x3ff1e05b\n      eq\n      tag_4\n      jumpi\n    tag_1:\n      0x00\n      dup1\n      revert\n        /* \"contracts/3_Ballot.sol\":144:173  uint256 public withdrawlLimit */\n    tag_2:\n      callvalue\n      dup1\n      iszero\n      tag_10\n      jumpi\n      0x00\n      dup1\n      revert\n    tag_10:\n      pop\n      tag_11\n      tag_12\n      jump\t// in\n    tag_11:\n      mload(0x40)\n      tag_13\n      swap2\n      swap1\n      tag_14\n      jump\t// in\n    tag_13:\n      mload(0x40)\n      dup1\n      swap2\n      sub\n      swap1\n      return\n        /* \"contracts/3_Ballot.sol\":454:722  function withdraw(uint256 debit) public {... */\n    tag_3:\n      callvalue\n      dup1\n      iszero\n      tag_15\n      jumpi\n      0x00\n      dup1\n      revert\n    tag_15:\n      pop\n      tag_16\n      0x04\n      dup1\n      calldatasize\n      sub\n      dup2\n      add\n      swap1\n      tag_17\n      swap2\n      swap1\n      tag_18\n      jump\t// in\n    tag_17:\n      tag_19\n      jump\t// in\n    tag_16:\n      stop\n        /* \"contracts/3_Ballot.sol\":723:805  function viewBalance() public view returns(uint256){... */\n    tag_4:\n      callvalue\n      dup1\n      iszero\n      tag_20\n      jumpi\n      0x00\n      dup1\n      revert\n    tag_20:\n      pop\n      tag_21\n      tag_22\n      jump\t// in\n    tag_21:\n      mload(0x40)\n      tag_23\n      swap2\n      swap1\n      tag_14\n      jump\t// in\n    tag_23:\n      mload(0x40)\n      dup1\n      swap2\n      sub\n      swap1\n      return\n        /* \"contracts/3_Ballot.sol\":232:382  function setWithdrawlLimit(uint256 limit) public {... */\n    tag_5:\n      callvalue\n      dup1\n      iszero\n      tag_24\n      jumpi\n      0x00\n      dup1\n      revert\n    tag_24:\n      pop\n      tag_25\n      0x04\n      dup1\n      calldatasize\n      sub\n      dup2\n      add\n      swap1\n      tag_26\n      swap2\n      swap1\n      tag_18\n      jump\t// in\n    tag_26:\n      tag_27\n      jump\t// in\n    tag_25:\n      stop\n        /* \"contracts/3_Ballot.sol\":383:452  function deposit() public payable {... */\n    tag_6:\n      tag_28\n      tag_29\n      jump\t// in\n    tag_28:\n      stop\n        /* \"contracts/3_Ballot.sol\":100:142  mapping(address => uint256) public balance */\n    tag_7:\n      callvalue\n      dup1\n      iszero\n      tag_30\n      jumpi\n      0x00\n      dup1\n      revert\n    tag_30:\n      pop\n      tag_31\n      0x04\n      dup1\n      calldatasize\n      sub\n      dup2\n      add\n      swap1\n      tag_32\n      swap2\n      swap1\n      tag_33\n      jump\t// in\n    tag_32:\n      tag_34\n      jump\t// in\n    tag_31:\n      mload(0x40)\n      tag_35\n      swap2\n      swap1\n      tag_14\n      jump\t// in\n    tag_35:\n      mload(0x40)\n      dup1\n      swap2\n      sub\n      swap1\n      return\n        /* \"contracts/3_Ballot.sol\":78:98  address public admin */\n    tag_8:\n      callvalue\n      dup1\n      iszero\n      tag_36\n      jumpi\n      0x00\n      dup1\n      revert\n    tag_36:\n      pop\n      tag_37\n      tag_38\n      jump\t// in\n    tag_37:\n      mload(0x40)\n      tag_39\n      swap2\n      swap1\n      tag_40\n      jump\t// in\n    tag_39:\n      mload(0x40)\n      dup1\n      swap2\n      sub\n      swap1\n      return\n        /* \"contracts/3_Ballot.sol\":144:173  uint256 public withdrawlLimit */\n    tag_12:\n      sload(0x02)\n      dup2\n      jump\t// out\n        /* \"contracts/3_Ballot.sol\":454:722  function withdraw(uint256 debit) public {... */\n    tag_19:\n        /* \"contracts/3_Ballot.sol\":513:527  withdrawlLimit */\n      sload(0x02)\n        /* \"contracts/3_Ballot.sol\":504:509  debit */\n      dup2\n        /* \"contracts/3_Ballot.sol\":504:527  debit <= withdrawlLimit */\n      gt\n      iszero\n        /* \"contracts/3_Ballot.sol\":496:563  require(debit <= withdrawlLimit, \"Debit amount exceeds the limit!\") */\n      tag_42\n      jumpi\n      mload(0x40)\n      0x08c379a000000000000000000000000000000000000000000000000000000000\n      dup2\n      mstore\n      0x04\n      add\n      tag_43\n      swap1\n      tag_44\n      jump\t// in\n    tag_43:\n      mload(0x40)\n      dup1\n      swap2\n      sub\n      swap1\n      revert\n    tag_42:\n        /* \"contracts/3_Ballot.sol\":583:590  balance */\n      0x01\n        /* \"contracts/3_Ballot.sol\":583:602  balance[msg.sender] */\n      0x00\n        /* \"contracts/3_Ballot.sol\":591:601  msg.sender */\n      caller\n        /* \"contracts/3_Ballot.sol\":583:602  balance[msg.sender] */\n      0xffffffffffffffffffffffffffffffffffffffff\n      and\n      0xffffffffffffffffffffffffffffffffffffffff\n      and\n      dup2\n      mstore\n      0x20\n      add\n      swap1\n      dup2\n      mstore\n      0x20\n      add\n      0x00\n      keccak256\n      sload\n        /* \"contracts/3_Ballot.sol\":574:579  debit */\n      dup2\n        /* \"contracts/3_Ballot.sol\":574:602  debit <= balance[msg.sender] */\n      gt\n      iszero\n        /* \"contracts/3_Ballot.sol\":566:650  require(debit <= balance[msg.sender], \"Debit amount exceeds the remaining balance!\") */\n      tag_45\n      jumpi\n      mload(0x40)\n      0x08c379a000000000000000000000000000000000000000000000000000000000\n      dup2\n      mstore\n      0x04\n      add\n      tag_46\n      swap1\n      tag_47\n      jump\t// in\n    tag_46:\n      mload(0x40)\n      dup1\n      swap2\n      sub\n      swap1\n      revert\n    tag_45:\n        /* \"contracts/3_Ballot.sol\":676:681  debit */\n      dup1\n        /* \"contracts/3_Ballot.sol\":653:660  balance */\n      0x01\n        /* \"contracts/3_Ballot.sol\":653:672  balance[msg.sender] */\n      0x00\n        /* \"contracts/3_Ballot.sol\":661:671  msg.sender */\n      caller\n        /* \"contracts/3_Ballot.sol\":653:672  balance[msg.sender] */\n      0xffffffffffffffffffffffffffffffffffffffff\n      and\n      0xffffffffffffffffffffffffffffffffffffffff\n      and\n      dup2\n      mstore\n      0x20\n      add\n      swap1\n      dup2\n      mstore\n      0x20\n      add\n      0x00\n      keccak256\n      0x00\n        /* \"contracts/3_Ballot.sol\":653:681  balance[msg.sender] -= debit */\n      dup3\n      dup3\n      sload\n      tag_48\n      swap2\n      swap1\n      tag_49\n      jump\t// in\n    tag_48:\n      swap3\n      pop\n      pop\n      dup2\n      swap1\n      sstore\n      pop\n        /* \"contracts/3_Ballot.sol\":692:702  msg.sender */\n      caller\n        /* \"contracts/3_Ballot.sol\":684:712  payable(msg.sender).transfer */\n      0xffffffffffffffffffffffffffffffffffffffff\n      and\n        /* \"contracts/3_Ballot.sol\":684:719  payable(msg.sender).transfer(debit) */\n      0x08fc\n        /* \"contracts/3_Ballot.sol\":713:718  debit */\n      dup3\n        /* \"contracts/3_Ballot.sol\":684:719  payable(msg.sender).transfer(debit) */\n      swap1\n      dup2\n      iszero\n      mul\n      swap1\n      mload(0x40)\n      0x00\n      mload(0x40)\n      dup1\n      dup4\n      sub\n      dup2\n      dup6\n      dup9\n      dup9\n      call\n      swap4\n      pop\n      pop\n      pop\n      pop\n      iszero\n      dup1\n      iszero\n      tag_51\n      jumpi\n      returndatasize\n      0x00\n      dup1\n      returndatacopy\n      revert(0x00, returndatasize)\n    tag_51:\n      pop\n        /* \"contracts/3_Ballot.sol\":454:722  function withdraw(uint256 debit) public {... */\n      pop\n      jump\t// out\n        /* \"contracts/3_Ballot.sol\":723:805  function viewBalance() public view returns(uint256){... */\n    tag_22:\n        /* \"contracts/3_Ballot.sol\":766:773  uint256 */\n      0x00\n        /* \"contracts/3_Ballot.sol\":783:790  balance */\n      0x01\n        /* \"contracts/3_Ballot.sol\":783:802  balance[msg.sender] */\n      0x00\n        /* \"contracts/3_Ballot.sol\":791:801  msg.sender */\n      caller\n        /* \"contracts/3_Ballot.sol\":783:802  balance[msg.sender] */\n      0xffffffffffffffffffffffffffffffffffffffff\n      and\n      0xffffffffffffffffffffffffffffffffffffffff\n      and\n      dup2\n      mstore\n      0x20\n      add\n      swap1\n      dup2\n      mstore\n      0x20\n      add\n      0x00\n      keccak256\n      sload\n        /* \"contracts/3_Ballot.sol\":776:802  return balance[msg.sender] */\n      swap1\n      pop\n        /* \"contracts/3_Ballot.sol\":723:805  function viewBalance() public view returns(uint256){... */\n      swap1\n      jump\t// out\n        /* \"contracts/3_Ballot.sol\":232:382  function setWithdrawlLimit(uint256 limit) public {... */\n    tag_27:\n        /* \"contracts/3_Ballot.sol\":305:310  admin */\n      0x00\n      dup1\n      sload\n      swap1\n      0x0100\n      exp\n      swap1\n      div\n      0xffffffffffffffffffffffffffffffffffffffff\n      and\n        /* \"contracts/3_Ballot.sol\":291:310  msg.sender == admin */\n      0xffffffffffffffffffffffffffffffffffffffff\n      and\n        /* \"contracts/3_Ballot.sol\":291:301  msg.sender */\n      caller\n        /* \"contracts/3_Ballot.sol\":291:310  msg.sender == admin */\n      0xffffffffffffffffffffffffffffffffffffffff\n      and\n      eq\n        /* \"contracts/3_Ballot.sol\":283:354  require(msg.sender == admin, \"Only admin can set the withdrawl limit!\") */\n      tag_54\n      jumpi\n      mload(0x40)\n      0x08c379a000000000000000000000000000000000000000000000000000000000\n      dup2\n      mstore\n      0x04\n      add\n      tag_55\n      swap1\n      tag_56\n      jump\t// in\n    tag_55:\n      mload(0x40)\n      dup1\n      swap2\n      sub\n      swap1\n      revert\n    tag_54:\n        /* \"contracts/3_Ballot.sol\":374:379  limit */\n      dup1\n        /* \"contracts/3_Ballot.sol\":357:371  withdrawlLimit */\n      0x02\n        /* \"contracts/3_Ballot.sol\":357:379  withdrawlLimit = limit */\n      dup2\n      swap1\n      sstore\n      pop\n        /* \"contracts/3_Ballot.sol\":232:382  function setWithdrawlLimit(uint256 limit) public {... */\n      pop\n      jump\t// out\n        /* \"contracts/3_Ballot.sol\":383:452  function deposit() public payable {... */\n    tag_29:\n        /* \"contracts/3_Ballot.sol\":440:449  msg.value */\n      callvalue\n        /* \"contracts/3_Ballot.sol\":419:426  balance */\n      0x01\n        /* \"contracts/3_Ballot.sol\":419:438  balance[msg.sender] */\n      0x00\n        /* \"contracts/3_Ballot.sol\":427:437  msg.sender */\n      caller\n        /* \"contracts/3_Ballot.sol\":419:438  balance[msg.sender] */\n      0xffffffffffffffffffffffffffffffffffffffff\n      and\n      0xffffffffffffffffffffffffffffffffffffffff\n      and\n      dup2\n      mstore\n      0x20\n      add\n      swap1\n      dup2\n      mstore\n      0x20\n      add\n      0x00\n      keccak256\n      0x00\n        /* \"contracts/3_Ballot.sol\":419:449  balance[msg.sender]+=msg.value */\n      dup3\n      dup3\n      sload\n      tag_58\n      swap2\n      swap1\n      tag_59\n      jump\t// in\n    tag_58:\n      swap3\n      pop\n      pop\n      dup2\n      swap1\n      sstore\n      pop\n        /* \"contracts/3_Ballot.sol\":383:452  function deposit() public payable {... */\n      jump\t// out\n        /* \"contracts/3_Ballot.sol\":100:142  mapping(address => uint256) public balance */\n    tag_34:\n      mstore(0x20, 0x01)\n      dup1\n      0x00\n      mstore\n      keccak256(0x00, 0x40)\n      0x00\n      swap2\n      pop\n      swap1\n      pop\n      sload\n      dup2\n      jump\t// out\n        /* \"contracts/3_Ballot.sol\":78:98  address public admin */\n    tag_38:\n      0x00\n      dup1\n      sload\n      swap1\n      0x0100\n      exp\n      swap1\n      div\n      0xffffffffffffffffffffffffffffffffffffffff\n      and\n      dup2\n      jump\t// out\n        /* \"#utility.yul\":7:84   */\n    tag_60:\n        /* \"#utility.yul\":44:51   */\n      0x00\n        /* \"#utility.yul\":73:78   */\n      dup2\n        /* \"#utility.yul\":62:78   */\n      swap1\n      pop\n        /* \"#utility.yul\":7:84   */\n      swap2\n      swap1\n      pop\n      jump\t// out\n        /* \"#utility.yul\":90:208   */\n    tag_61:\n        /* \"#utility.yul\":177:201   */\n      tag_83\n        /* \"#utility.yul\":195:200   */\n      dup2\n        /* \"#utility.yul\":177:201   */\n      tag_60\n      jump\t// in\n    tag_83:\n        /* \"#utility.yul\":172:175   */\n      dup3\n        /* \"#utility.yul\":165:202   */\n      mstore\n        /* \"#utility.yul\":90:208   */\n      pop\n      pop\n      jump\t// out\n        /* \"#utility.yul\":214:436   */\n    tag_14:\n        /* \"#utility.yul\":307:311   */\n      0x00\n        /* \"#utility.yul\":345:347   */\n      0x20\n        /* \"#utility.yul\":334:343   */\n      dup3\n        /* \"#utility.yul\":330:348   */\n      add\n        /* \"#utility.yul\":322:348   */\n      swap1\n      pop\n        /* \"#utility.yul\":358:429   */\n      tag_85\n        /* \"#utility.yul\":426:427   */\n      0x00\n        /* \"#utility.yul\":415:424   */\n      dup4\n        /* \"#utility.yul\":411:428   */\n      add\n        /* \"#utility.yul\":402:408   */\n      dup5\n        /* \"#utility.yul\":358:429   */\n      tag_61\n      jump\t// in\n    tag_85:\n        /* \"#utility.yul\":214:436   */\n      swap3\n      swap2\n      pop\n      pop\n      jump\t// out\n        /* \"#utility.yul\":523:640   */\n    tag_63:\n        /* \"#utility.yul\":632:633   */\n      0x00\n        /* \"#utility.yul\":629:630   */\n      dup1\n        /* \"#utility.yul\":622:634   */\n      revert\n        /* \"#utility.yul\":769:891   */\n    tag_65:\n        /* \"#utility.yul\":842:866   */\n      tag_90\n        /* \"#utility.yul\":860:865   */\n      dup2\n        /* \"#utility.yul\":842:866   */\n      tag_60\n      jump\t// in\n    tag_90:\n        /* \"#utility.yul\":835:840   */\n      dup2\n        /* \"#utility.yul\":832:867   */\n      eq\n        /* \"#utility.yul\":822:885   */\n      tag_91\n      jumpi\n        /* \"#utility.yul\":881:882   */\n      0x00\n        /* \"#utility.yul\":878:879   */\n      dup1\n        /* \"#utility.yul\":871:883   */\n      revert\n        /* \"#utility.yul\":822:885   */\n    tag_91:\n        /* \"#utility.yul\":769:891   */\n      pop\n      jump\t// out\n        /* \"#utility.yul\":897:1036   */\n    tag_66:\n        /* \"#utility.yul\":943:948   */\n      0x00\n        /* \"#utility.yul\":981:987   */\n      dup2\n        /* \"#utility.yul\":968:988   */\n      calldataload\n        /* \"#utility.yul\":959:988   */\n      swap1\n      pop\n        /* \"#utility.yul\":997:1030   */\n      tag_93\n        /* \"#utility.yul\":1024:1029   */\n      dup2\n        /* \"#utility.yul\":997:1030   */\n      tag_65\n      jump\t// in\n    tag_93:\n        /* \"#utility.yul\":897:1036   */\n      swap3\n      swap2\n      pop\n      pop\n      jump\t// out\n        /* \"#utility.yul\":1042:1371   */\n    tag_18:\n        /* \"#utility.yul\":1101:1107   */\n      0x00\n        /* \"#utility.yul\":1150:1152   */\n      0x20\n        /* \"#utility.yul\":1138:1147   */\n      dup3\n        /* \"#utility.yul\":1129:1136   */\n      dup5\n        /* \"#utility.yul\":1125:1148   */\n      sub\n        /* \"#utility.yul\":1121:1153   */\n      slt\n        /* \"#utility.yul\":1118:1237   */\n      iszero\n      tag_95\n      jumpi\n        /* \"#utility.yul\":1156:1235   */\n      tag_96\n      tag_63\n      jump\t// in\n    tag_96:\n        /* \"#utility.yul\":1118:1237   */\n    tag_95:\n        /* \"#utility.yul\":1276:1277   */\n      0x00\n        /* \"#utility.yul\":1301:1354   */\n      tag_97\n        /* \"#utility.yul\":1346:1353   */\n      dup5\n        /* \"#utility.yul\":1337:1343   */\n      dup3\n        /* \"#utility.yul\":1326:1335   */\n      dup6\n        /* \"#utility.yul\":1322:1344   */\n      add\n        /* \"#utility.yul\":1301:1354   */\n      tag_66\n      jump\t// in\n    tag_97:\n        /* \"#utility.yul\":1291:1354   */\n      swap2\n      pop\n        /* \"#utility.yul\":1247:1364   */\n      pop\n        /* \"#utility.yul\":1042:1371   */\n      swap3\n      swap2\n      pop\n      pop\n      jump\t// out\n        /* \"#utility.yul\":1377:1503   */\n    tag_67:\n        /* \"#utility.yul\":1414:1421   */\n      0x00\n        /* \"#utility.yul\":1454:1496   */\n      0xffffffffffffffffffffffffffffffffffffffff\n        /* \"#utility.yul\":1447:1452   */\n      dup3\n        /* \"#utility.yul\":1443:1497   */\n      and\n        /* \"#utility.yul\":1432:1497   */\n      swap1\n      pop\n        /* \"#utility.yul\":1377:1503   */\n      swap2\n      swap1\n      pop\n      jump\t// out\n        /* \"#utility.yul\":1509:1605   */\n    tag_68:\n        /* \"#utility.yul\":1546:1553   */\n      0x00\n        /* \"#utility.yul\":1575:1599   */\n      tag_100\n        /* \"#utility.yul\":1593:1598   */\n      dup3\n        /* \"#utility.yul\":1575:1599   */\n      tag_67\n      jump\t// in\n    tag_100:\n        /* \"#utility.yul\":1564:1599   */\n      swap1\n      pop\n        /* \"#utility.yul\":1509:1605   */\n      swap2\n      swap1\n      pop\n      jump\t// out\n        /* \"#utility.yul\":1611:1733   */\n    tag_69:\n        /* \"#utility.yul\":1684:1708   */\n      tag_102\n        /* \"#utility.yul\":1702:1707   */\n      dup2\n        /* \"#utility.yul\":1684:1708   */\n      tag_68\n      jump\t// in\n    tag_102:\n        /* \"#utility.yul\":1677:1682   */\n      dup2\n        /* \"#utility.yul\":1674:1709   */\n      eq\n        /* \"#utility.yul\":1664:1727   */\n      tag_103\n      jumpi\n        /* \"#utility.yul\":1723:1724   */\n      0x00\n        /* \"#utility.yul\":1720:1721   */\n      dup1\n        /* \"#utility.yul\":1713:1725   */\n      revert\n        /* \"#utility.yul\":1664:1727   */\n    tag_103:\n        /* \"#utility.yul\":1611:1733   */\n      pop\n      jump\t// out\n        /* \"#utility.yul\":1739:1878   */\n    tag_70:\n        /* \"#utility.yul\":1785:1790   */\n      0x00\n        /* \"#utility.yul\":1823:1829   */\n      dup2\n        /* \"#utility.yul\":1810:1830   */\n      calldataload\n        /* \"#utility.yul\":1801:1830   */\n      swap1\n      pop\n        /* \"#utility.yul\":1839:1872   */\n      tag_105\n        /* \"#utility.yul\":1866:1871   */\n      dup2\n        /* \"#utility.yul\":1839:1872   */\n      tag_69\n      jump\t// in\n    tag_105:\n        /* \"#utility.yul\":1739:1878   */\n      swap3\n      swap2\n      pop\n      pop\n      jump\t// out\n        /* \"#utility.yul\":1884:2213   */\n    tag_33:\n        /* \"#utility.yul\":1943:1949   */\n      0x00\n        /* \"#utility.yul\":1992:1994   */\n      0x20\n        /* \"#utility.yul\":1980:1989   */\n      dup3\n        /* \"#utility.yul\":1971:1978   */\n      dup5\n        /* \"#utility.yul\":1967:1990   */\n      sub\n        /* \"#utility.yul\":1963:1995   */\n      slt\n        /* \"#utility.yul\":1960:2079   */\n      iszero\n      tag_107\n      jumpi\n        /* \"#utility.yul\":1998:2077   */\n      tag_108\n      tag_63\n      jump\t// in\n    tag_108:\n        /* \"#utility.yul\":1960:2079   */\n    tag_107:\n        /* \"#utility.yul\":2118:2119   */\n      0x00\n        /* \"#utility.yul\":2143:2196   */\n      tag_109\n        /* \"#utility.yul\":2188:2195   */\n      dup5\n        /* \"#utility.yul\":2179:2185   */\n      dup3\n        /* \"#utility.yul\":2168:2177   */\n      dup6\n        /* \"#utility.yul\":2164:2186   */\n      add\n        /* \"#utility.yul\":2143:2196   */\n      tag_70\n      jump\t// in\n    tag_109:\n        /* \"#utility.yul\":2133:2196   */\n      swap2\n      pop\n        /* \"#utility.yul\":2089:2206   */\n      pop\n        /* \"#utility.yul\":1884:2213   */\n      swap3\n      swap2\n      pop\n      pop\n      jump\t// out\n        /* \"#utility.yul\":2219:2337   */\n    tag_71:\n        /* \"#utility.yul\":2306:2330   */\n      tag_111\n        /* \"#utility.yul\":2324:2329   */\n      dup2\n        /* \"#utility.yul\":2306:2330   */\n      tag_68\n      jump\t// in\n    tag_111:\n        /* \"#utility.yul\":2301:2304   */\n      dup3\n        /* \"#utility.yul\":2294:2331   */\n      mstore\n        /* \"#utility.yul\":2219:2337   */\n      pop\n      pop\n      jump\t// out\n        /* \"#utility.yul\":2343:2565   */\n    tag_40:\n        /* \"#utility.yul\":2436:2440   */\n      0x00\n        /* \"#utility.yul\":2474:2476   */\n      0x20\n        /* \"#utility.yul\":2463:2472   */\n      dup3\n        /* \"#utility.yul\":2459:2477   */\n      add\n        /* \"#utility.yul\":2451:2477   */\n      swap1\n      pop\n        /* \"#utility.yul\":2487:2558   */\n      tag_113\n        /* \"#utility.yul\":2555:2556   */\n      0x00\n        /* \"#utility.yul\":2544:2553   */\n      dup4\n        /* \"#utility.yul\":2540:2557   */\n      add\n        /* \"#utility.yul\":2531:2537   */\n      dup5\n        /* \"#utility.yul\":2487:2558   */\n      tag_71\n      jump\t// in\n    tag_113:\n        /* \"#utility.yul\":2343:2565   */\n      swap3\n      swap2\n      pop\n      pop\n      jump\t// out\n        /* \"#utility.yul\":2571:2740   */\n    tag_72:\n        /* \"#utility.yul\":2655:2666   */\n      0x00\n        /* \"#utility.yul\":2689:2695   */\n      dup3\n        /* \"#utility.yul\":2684:2687   */\n      dup3\n        /* \"#utility.yul\":2677:2696   */\n      mstore\n        /* \"#utility.yul\":2729:2733   */\n      0x20\n        /* \"#utility.yul\":2724:2727   */\n      dup3\n        /* \"#utility.yul\":2720:2734   */\n      add\n        /* \"#utility.yul\":2705:2734   */\n      swap1\n      pop\n        /* \"#utility.yul\":2571:2740   */\n      swap3\n      swap2\n      pop\n      pop\n      jump\t// out\n        /* \"#utility.yul\":2746:2927   */\n    tag_73:\n        /* \"#utility.yul\":2886:2919   */\n      0x446562697420616d6f756e74206578636565647320746865206c696d69742100\n        /* \"#utility.yul\":2882:2883   */\n      0x00\n        /* \"#utility.yul\":2874:2880   */\n      dup3\n        /* \"#utility.yul\":2870:2884   */\n      add\n        /* \"#utility.yul\":2863:2920   */\n      mstore\n        /* \"#utility.yul\":2746:2927   */\n      pop\n      jump\t// out\n        /* \"#utility.yul\":2933:3299   */\n    tag_74:\n        /* \"#utility.yul\":3075:3078   */\n      0x00\n        /* \"#utility.yul\":3096:3163   */\n      tag_117\n        /* \"#utility.yul\":3160:3162   */\n      0x1f\n        /* \"#utility.yul\":3155:3158   */\n      dup4\n        /* \"#utility.yul\":3096:3163   */\n      tag_72\n      jump\t// in\n    tag_117:\n        /* \"#utility.yul\":3089:3163   */\n      swap2\n      pop\n        /* \"#utility.yul\":3172:3265   */\n      tag_118\n        /* \"#utility.yul\":3261:3264   */\n      dup3\n        /* \"#utility.yul\":3172:3265   */\n      tag_73\n      jump\t// in\n    tag_118:\n        /* \"#utility.yul\":3290:3292   */\n      0x20\n        /* \"#utility.yul\":3285:3288   */\n      dup3\n        /* \"#utility.yul\":3281:3293   */\n      add\n        /* \"#utility.yul\":3274:3293   */\n      swap1\n      pop\n        /* \"#utility.yul\":2933:3299   */\n      swap2\n      swap1\n      pop\n      jump\t// out\n        /* \"#utility.yul\":3305:3724   */\n    tag_44:\n        /* \"#utility.yul\":3471:3475   */\n      0x00\n        /* \"#utility.yul\":3509:3511   */\n      0x20\n        /* \"#utility.yul\":3498:3507   */\n      dup3\n        /* \"#utility.yul\":3494:3512   */\n      add\n        /* \"#utility.yul\":3486:3512   */\n      swap1\n      pop\n        /* \"#utility.yul\":3558:3567   */\n      dup2\n        /* \"#utility.yul\":3552:3556   */\n      dup2\n        /* \"#utility.yul\":3548:3568   */\n      sub\n        /* \"#utility.yul\":3544:3545   */\n      0x00\n        /* \"#utility.yul\":3533:3542   */\n      dup4\n        /* \"#utility.yul\":3529:3546   */\n      add\n        /* \"#utility.yul\":3522:3569   */\n      mstore\n        /* \"#utility.yul\":3586:3717   */\n      tag_120\n        /* \"#utility.yul\":3712:3716   */\n      dup2\n        /* \"#utility.yul\":3586:3717   */\n      tag_74\n      jump\t// in\n    tag_120:\n        /* \"#utility.yul\":3578:3717   */\n      swap1\n      pop\n        /* \"#utility.yul\":3305:3724   */\n      swap2\n      swap1\n      pop\n      jump\t// out\n        /* \"#utility.yul\":3730:3960   */\n    tag_75:\n        /* \"#utility.yul\":3870:3904   */\n      0x446562697420616d6f756e742065786365656473207468652072656d61696e69\n        /* \"#utility.yul\":3866:3867   */\n      0x00\n        /* \"#utility.yul\":3858:3864   */\n      dup3\n        /* \"#utility.yul\":3854:3868   */\n      add\n        /* \"#utility.yul\":3847:3905   */\n      mstore\n        /* \"#utility.yul\":3939:3952   */\n      0x6e672062616c616e636521000000000000000000000000000000000000000000\n        /* \"#utility.yul\":3934:3936   */\n      0x20\n        /* \"#utility.yul\":3926:3932   */\n      dup3\n        /* \"#utility.yul\":3922:3937   */\n      add\n        /* \"#utility.yul\":3915:3953   */\n      mstore\n        /* \"#utility.yul\":3730:3960   */\n      pop\n      jump\t// out\n        /* \"#utility.yul\":3966:4332   */\n    tag_76:\n        /* \"#utility.yul\":4108:4111   */\n      0x00\n        /* \"#utility.yul\":4129:4196   */\n      tag_123\n        /* \"#utility.yul\":4193:4195   */\n      0x2b\n        /* \"#utility.yul\":4188:4191   */\n      dup4\n        /* \"#utility.yul\":4129:4196   */\n      tag_72\n      jump\t// in\n    tag_123:\n        /* \"#utility.yul\":4122:4196   */\n      swap2\n      pop\n        /* \"#utility.yul\":4205:4298   */\n      tag_124\n        /* \"#utility.yul\":4294:4297   */\n      dup3\n        /* \"#utility.yul\":4205:4298   */\n      tag_75\n      jump\t// in\n    tag_124:\n        /* \"#utility.yul\":4323:4325   */\n      0x40\n        /* \"#utility.yul\":4318:4321   */\n      dup3\n        /* \"#utility.yul\":4314:4326   */\n      add\n        /* \"#utility.yul\":4307:4326   */\n      swap1\n      pop\n        /* \"#utility.yul\":3966:4332   */\n      swap2\n      swap1\n      pop\n      jump\t// out\n        /* \"#utility.yul\":4338:4757   */\n    tag_47:\n        /* \"#utility.yul\":4504:4508   */\n      0x00\n        /* \"#utility.yul\":4542:4544   */\n      0x20\n        /* \"#utility.yul\":4531:4540   */\n      dup3\n        /* \"#utility.yul\":4527:4545   */\n      add\n        /* \"#utility.yul\":4519:4545   */\n      swap1\n      pop\n        /* \"#utility.yul\":4591:4600   */\n      dup2\n        /* \"#utility.yul\":4585:4589   */\n      dup2\n        /* \"#utility.yul\":4581:4601   */\n      sub\n        /* \"#utility.yul\":4577:4578   */\n      0x00\n        /* \"#utility.yul\":4566:4575   */\n      dup4\n        /* \"#utility.yul\":4562:4579   */\n      add\n        /* \"#utility.yul\":4555:4602   */\n      mstore\n        /* \"#utility.yul\":4619:4750   */\n      tag_126\n        /* \"#utility.yul\":4745:4749   */\n      dup2\n        /* \"#utility.yul\":4619:4750   */\n      tag_76\n      jump\t// in\n    tag_126:\n        /* \"#utility.yul\":4611:4750   */\n      swap1\n      pop\n        /* \"#utility.yul\":4338:4757   */\n      swap2\n      swap1\n      pop\n      jump\t// out\n        /* \"#utility.yul\":4763:4943   */\n    tag_77:\n        /* \"#utility.yul\":4811:4888   */\n      0x4e487b7100000000000000000000000000000000000000000000000000000000\n        /* \"#utility.yul\":4808:4809   */\n      0x00\n        /* \"#utility.yul\":4801:4889   */\n      mstore\n        /* \"#utility.yul\":4908:4912   */\n      0x11\n        /* \"#utility.yul\":4905:4906   */\n      0x04\n        /* \"#utility.yul\":4898:4913   */\n      mstore\n        /* \"#utility.yul\":4932:4936   */\n      0x24\n        /* \"#utility.yul\":4929:4930   */\n      0x00\n        /* \"#utility.yul\":4922:4937   */\n      revert\n        /* \"#utility.yul\":4949:5143   */\n    tag_49:\n        /* \"#utility.yul\":4989:4993   */\n      0x00\n        /* \"#utility.yul\":5009:5029   */\n      tag_129\n        /* \"#utility.yul\":5027:5028   */\n      dup3\n        /* \"#utility.yul\":5009:5029   */\n      tag_60\n      jump\t// in\n    tag_129:\n        /* \"#utility.yul\":5004:5029   */\n      swap2\n      pop\n        /* \"#utility.yul\":5043:5063   */\n      tag_130\n        /* \"#utility.yul\":5061:5062   */\n      dup4\n        /* \"#utility.yul\":5043:5063   */\n      tag_60\n      jump\t// in\n    tag_130:\n        /* \"#utility.yul\":5038:5063   */\n      swap3\n      pop\n        /* \"#utility.yul\":5087:5088   */\n      dup3\n        /* \"#utility.yul\":5084:5085   */\n      dup3\n        /* \"#utility.yul\":5080:5089   */\n      sub\n        /* \"#utility.yul\":5072:5089   */\n      swap1\n      pop\n        /* \"#utility.yul\":5111:5112   */\n      dup2\n        /* \"#utility.yul\":5105:5109   */\n      dup2\n        /* \"#utility.yul\":5102:5113   */\n      gt\n        /* \"#utility.yul\":5099:5136   */\n      iszero\n      tag_131\n      jumpi\n        /* \"#utility.yul\":5116:5134   */\n      tag_132\n      tag_77\n      jump\t// in\n    tag_132:\n        /* \"#utility.yul\":5099:5136   */\n    tag_131:\n        /* \"#utility.yul\":4949:5143   */\n      swap3\n      swap2\n      pop\n      pop\n      jump\t// out\n        /* \"#utility.yul\":5149:5375   */\n    tag_78:\n        /* \"#utility.yul\":5289:5323   */\n      0x4f6e6c792061646d696e2063616e20736574207468652077697468647261776c\n        /* \"#utility.yul\":5285:5286   */\n      0x00\n        /* \"#utility.yul\":5277:5283   */\n      dup3\n        /* \"#utility.yul\":5273:5287   */\n      add\n        /* \"#utility.yul\":5266:5324   */\n      mstore\n        /* \"#utility.yul\":5358:5367   */\n      0x206c696d69742100000000000000000000000000000000000000000000000000\n        /* \"#utility.yul\":5353:5355   */\n      0x20\n        /* \"#utility.yul\":5345:5351   */\n      dup3\n        /* \"#utility.yul\":5341:5356   */\n      add\n        /* \"#utility.yul\":5334:5368   */\n      mstore\n        /* \"#utility.yul\":5149:5375   */\n      pop\n      jump\t// out\n        /* \"#utility.yul\":5381:5747   */\n    tag_79:\n        /* \"#utility.yul\":5523:5526   */\n      0x00\n        /* \"#utility.yul\":5544:5611   */\n      tag_135\n        /* \"#utility.yul\":5608:5610   */\n      0x27\n        /* \"#utility.yul\":5603:5606   */\n      dup4\n        /* \"#utility.yul\":5544:5611   */\n      tag_72\n      jump\t// in\n    tag_135:\n        /* \"#utility.yul\":5537:5611   */\n      swap2\n      pop\n        /* \"#utility.yul\":5620:5713   */\n      tag_136\n        /* \"#utility.yul\":5709:5712   */\n      dup3\n        /* \"#utility.yul\":5620:5713   */\n      tag_78\n      jump\t// in\n    tag_136:\n        /* \"#utility.yul\":5738:5740   */\n      0x40\n        /* \"#utility.yul\":5733:5736   */\n      dup3\n        /* \"#utility.yul\":5729:5741   */\n      add\n        /* \"#utility.yul\":5722:5741   */\n      swap1\n      pop\n        /* \"#utility.yul\":5381:5747   */\n      swap2\n      swap1\n      pop\n      jump\t// out\n        /* \"#utility.yul\":5753:6172   */\n    tag_56:\n        /* \"#utility.yul\":5919:5923   */\n      0x00\n        /* \"#utility.yul\":5957:5959   */\n      0x20\n        /* \"#utility.yul\":5946:5955   */\n      dup3\n        /* \"#utility.yul\":5942:5960   */\n      add\n        /* \"#utility.yul\":5934:5960   */\n      swap1\n      pop\n        /* \"#utility.yul\":6006:6015   */\n      dup2\n        /* \"#utility.yul\":6000:6004   */\n      dup2\n        /* \"#utility.yul\":5996:6016   */\n      sub\n        /* \"#utility.yul\":5992:5993   */\n      0x00\n        /* \"#utility.yul\":5981:5990   */\n      dup4\n        /* \"#utility.yul\":5977:5994   */\n      add\n        /* \"#utility.yul\":5970:6017   */\n      mstore\n        /* \"#utility.yul\":6034:6165   */\n      tag_138\n        /* \"#utility.yul\":6160:6164   */\n      dup2\n        /* \"#utility.yul\":6034:6165   */\n      tag_79\n      jump\t// in\n    tag_138:\n        /* \"#utility.yul\":6026:6165   */\n      swap1\n      pop\n        /* \"#utility.yul\":5753:6172   */\n      swap2\n      swap1\n      pop\n      jump\t// out\n        /* \"#utility.yul\":6178:6369   */\n    tag_59:\n        /* \"#utility.yul\":6218:6221   */\n      0x00\n        /* \"#utility.yul\":6237:6257   */\n      tag_140\n        /* \"#utility.yul\":6255:6256   */\n      dup3\n        /* \"#utility.yul\":6237:6257   */\n      tag_60\n      jump\t// in\n    tag_140:\n        /* \"#utility.yul\":6232:6257   */\n      swap2\n      pop\n        /* \"#utility.yul\":6271:6291   */\n      tag_141\n        /* \"#utility.yul\":6289:6290   */\n      dup4\n        /* \"#utility.yul\":6271:6291   */\n      tag_60\n      jump\t// in\n    tag_141:\n        /* \"#utility.yul\":6266:6291   */\n      swap3\n      pop\n        /* \"#utility.yul\":6314:6315   */\n      dup3\n        /* \"#utility.yul\":6311:6312   */\n      dup3\n        /* \"#utility.yul\":6307:6316   */\n      add\n        /* \"#utility.yul\":6300:6316   */\n      swap1\n      pop\n        /* \"#utility.yul\":6335:6338   */\n      dup1\n        /* \"#utility.yul\":6332:6333   */\n      dup3\n        /* \"#utility.yul\":6329:6339   */\n      gt\n        /* \"#utility.yul\":6326:6362   */\n      iszero\n      tag_142\n      jumpi\n        /* \"#utility.yul\":6342:6360   */\n      tag_143\n      tag_77\n      jump\t// in\n    tag_143:\n        /* \"#utility.yul\":6326:6362   */\n    tag_142:\n        /* \"#utility.yul\":6178:6369   */\n      swap3\n      swap2\n      pop\n      pop\n      jump\t// out\n\n    auxdata: 0xa264697066735822122095909cdfbec5030f0670ee643dedc35d18b7787cfa3e5c21e0ec8b9d1293e7b264736f6c63430008120033\n}\n",
				"bytecode": {
					"linkReferences": {},
					"object": "608060405234801561001057600080fd5b50336000806101000a81548173ffffffffffffffffffffffffffffffffffffffff021916908373ffffffffffffffffffffffffffffffffffffffff1602179055506001600281905550610824806100686000396000f3fe6080604052600436106100705760003560e01c8063ce1bb61d1161004e578063ce1bb61d146100f4578063d0e30db01461011d578063e3d670d714610127578063f851a4401461016457610070565b8063137631b9146100755780632e1a7d4d146100a05780633ff1e05b146100c9575b600080fd5b34801561008157600080fd5b5061008a61018f565b6040516100979190610488565b60405180910390f35b3480156100ac57600080fd5b506100c760048036038101906100c291906104d4565b610195565b005b3480156100d557600080fd5b506100de6102fc565b6040516100eb9190610488565b60405180910390f35b34801561010057600080fd5b5061011b600480360381019061011691906104d4565b610343565b005b6101256103db565b005b34801561013357600080fd5b5061014e6004803603810190610149919061055f565b610433565b60405161015b9190610488565b60405180910390f35b34801561017057600080fd5b5061017961044b565b604051610186919061059b565b60405180910390f35b60025481565b6002548111156101da576040517f08c379a00000000000000000000000000000000000000000000000000000000081526004016101d190610613565b60405180910390fd5b600160003373ffffffffffffffffffffffffffffffffffffffff1673ffffffffffffffffffffffffffffffffffffffff1681526020019081526020016000205481111561025c576040517f08c379a0000000000000000000000000000000000000000000000000000000008152600401610253906106a5565b60405180910390fd5b80600160003373ffffffffffffffffffffffffffffffffffffffff1673ffffffffffffffffffffffffffffffffffffffff16815260200190815260200160002060008282546102ab91906106f4565b925050819055503373ffffffffffffffffffffffffffffffffffffffff166108fc829081150290604051600060405180830381858888f193505050501580156102f8573d6000803e3d6000fd5b5050565b6000600160003373ffffffffffffffffffffffffffffffffffffffff1673ffffffffffffffffffffffffffffffffffffffff16815260200190815260200160002054905090565b60008054906101000a900473ffffffffffffffffffffffffffffffffffffffff1673ffffffffffffffffffffffffffffffffffffffff163373ffffffffffffffffffffffffffffffffffffffff16146103d1576040517f08c379a00000000000000000000000000000000000000000000000000000000081526004016103c89061079a565b60405180910390fd5b8060028190555050565b34600160003373ffffffffffffffffffffffffffffffffffffffff1673ffffffffffffffffffffffffffffffffffffffff168152602001908152602001600020600082825461042a91906107ba565b92505081905550565b60016020528060005260406000206000915090505481565b60008054906101000a900473ffffffffffffffffffffffffffffffffffffffff1681565b6000819050919050565b6104828161046f565b82525050565b600060208201905061049d6000830184610479565b92915050565b600080fd5b6104b18161046f565b81146104bc57600080fd5b50565b6000813590506104ce816104a8565b92915050565b6000602082840312156104ea576104e96104a3565b5b60006104f8848285016104bf565b91505092915050565b600073ffffffffffffffffffffffffffffffffffffffff82169050919050565b600061052c82610501565b9050919050565b61053c81610521565b811461054757600080fd5b50565b60008135905061055981610533565b92915050565b600060208284031215610575576105746104a3565b5b60006105838482850161054a565b91505092915050565b61059581610521565b82525050565b60006020820190506105b0600083018461058c565b92915050565b600082825260208201905092915050565b7f446562697420616d6f756e74206578636565647320746865206c696d69742100600082015250565b60006105fd601f836105b6565b9150610608826105c7565b602082019050919050565b6000602082019050818103600083015261062c816105f0565b9050919050565b7f446562697420616d6f756e742065786365656473207468652072656d61696e6960008201527f6e672062616c616e636521000000000000000000000000000000000000000000602082015250565b600061068f602b836105b6565b915061069a82610633565b604082019050919050565b600060208201905081810360008301526106be81610682565b9050919050565b7f4e487b7100000000000000000000000000000000000000000000000000000000600052601160045260246000fd5b60006106ff8261046f565b915061070a8361046f565b9250828203905081811115610722576107216106c5565b5b92915050565b7f4f6e6c792061646d696e2063616e20736574207468652077697468647261776c60008201527f206c696d69742100000000000000000000000000000000000000000000000000602082015250565b60006107846027836105b6565b915061078f82610728565b604082019050919050565b600060208201905081810360008301526107b381610777565b9050919050565b60006107c58261046f565b91506107d08361046f565b92508282019050808211156107e8576107e76106c5565b5b9291505056fea264697066735822122095909cdfbec5030f0670ee643dedc35d18b7787cfa3e5c21e0ec8b9d1293e7b264736f6c63430008120033",
					"opcodes": "PUSH1 0x80 PUSH1 0x40 MSTORE CALLVALUE DUP1 ISZERO PUSH2 0x10 JUMPI PUSH1 0x0 DUP1 REVERT JUMPDEST POP CALLER PUSH1 0x0 DUP1 PUSH2 0x100 EXP DUP2 SLOAD DUP2 PUSH20 0xFFFFFFFFFFFFFFFFFFFFFFFFFFFFFFFFFFFFFFFF MUL NOT AND SWAP1 DUP4 PUSH20 0xFFFFFFFFFFFFFFFFFFFFFFFFFFFFFFFFFFFFFFFF AND MUL OR SWAP1 SSTORE POP PUSH1 0x1 PUSH1 0x2 DUP2 SWAP1 SSTORE POP PUSH2 0x824 DUP1 PUSH2 0x68 PUSH1 0x0 CODECOPY PUSH1 0x0 RETURN INVALID PUSH1 0x80 PUSH1 0x40 MSTORE PUSH1 0x4 CALLDATASIZE LT PUSH2 0x70 JUMPI PUSH1 0x0 CALLDATALOAD PUSH1 0xE0 SHR DUP1 PUSH4 0xCE1BB61D GT PUSH2 0x4E JUMPI DUP1 PUSH4 0xCE1BB61D EQ PUSH2 0xF4 JUMPI DUP1 PUSH4 0xD0E30DB0 EQ PUSH2 0x11D JUMPI DUP1 PUSH4 0xE3D670D7 EQ PUSH2 0x127 JUMPI DUP1 PUSH4 0xF851A440 EQ PUSH2 0x164 JUMPI PUSH2 0x70 JUMP JUMPDEST DUP1 PUSH4 0x137631B9 EQ PUSH2 0x75 JUMPI DUP1 PUSH4 0x2E1A7D4D EQ PUSH2 0xA0 JUMPI DUP1 PUSH4 0x3FF1E05B EQ PUSH2 0xC9 JUMPI JUMPDEST PUSH1 0x0 DUP1 REVERT JUMPDEST CALLVALUE DUP1 ISZERO PUSH2 0x81 JUMPI PUSH1 0x0 DUP1 REVERT JUMPDEST POP PUSH2 0x8A PUSH2 0x18F JUMP JUMPDEST PUSH1 0x40 MLOAD PUSH2 0x97 SWAP2 SWAP1 PUSH2 0x488 JUMP JUMPDEST PUSH1 0x40 MLOAD DUP1 SWAP2 SUB SWAP1 RETURN JUMPDEST CALLVALUE DUP1 ISZERO PUSH2 0xAC JUMPI PUSH1 0x0 DUP1 REVERT JUMPDEST POP PUSH2 0xC7 PUSH1 0x4 DUP1 CALLDATASIZE SUB DUP2 ADD SWAP1 PUSH2 0xC2 SWAP2 SWAP1 PUSH2 0x4D4 JUMP JUMPDEST PUSH2 0x195 JUMP JUMPDEST STOP JUMPDEST CALLVALUE DUP1 ISZERO PUSH2 0xD5 JUMPI PUSH1 0x0 DUP1 REVERT JUMPDEST POP PUSH2 0xDE PUSH2 0x2FC JUMP JUMPDEST PUSH1 0x40 MLOAD PUSH2 0xEB SWAP2 SWAP1 PUSH2 0x488 JUMP JUMPDEST PUSH1 0x40 MLOAD DUP1 SWAP2 SUB SWAP1 RETURN JUMPDEST CALLVALUE DUP1 ISZERO PUSH2 0x100 JUMPI PUSH1 0x0 DUP1 REVERT JUMPDEST POP PUSH2 0x11B PUSH1 0x4 DUP1 CALLDATASIZE SUB DUP2 ADD SWAP1 PUSH2 0x116 SWAP2 SWAP1 PUSH2 0x4D4 JUMP JUMPDEST PUSH2 0x343 JUMP JUMPDEST STOP JUMPDEST PUSH2 0x125 PUSH2 0x3DB JUMP JUMPDEST STOP JUMPDEST CALLVALUE DUP1 ISZERO PUSH2 0x133 JUMPI PUSH1 0x0 DUP1 REVERT JUMPDEST POP PUSH2 0x14E PUSH1 0x4 DUP1 CALLDATASIZE SUB DUP2 ADD SWAP1 PUSH2 0x149 SWAP2 SWAP1 PUSH2 0x55F JUMP JUMPDEST PUSH2 0x433 JUMP JUMPDEST PUSH1 0x40 MLOAD PUSH2 0x15B SWAP2 SWAP1 PUSH2 0x488 JUMP JUMPDEST PUSH1 0x40 MLOAD DUP1 SWAP2 SUB SWAP1 RETURN JUMPDEST CALLVALUE DUP1 ISZERO PUSH2 0x170 JUMPI PUSH1 0x0 DUP1 REVERT JUMPDEST POP PUSH2 0x179 PUSH2 0x44B JUMP JUMPDEST PUSH1 0x40 MLOAD PUSH2 0x186 SWAP2 SWAP1 PUSH2 0x59B JUMP JUMPDEST PUSH1 0x40 MLOAD DUP1 SWAP2 SUB SWAP1 RETURN JUMPDEST PUSH1 0x2 SLOAD DUP2 JUMP JUMPDEST PUSH1 0x2 SLOAD DUP2 GT ISZERO PUSH2 0x1DA JUMPI PUSH1 0x40 MLOAD PUSH32 0x8C379A000000000000000000000000000000000000000000000000000000000 DUP2 MSTORE PUSH1 0x4 ADD PUSH2 0x1D1 SWAP1 PUSH2 0x613 JUMP JUMPDEST PUSH1 0x40 MLOAD DUP1 SWAP2 SUB SWAP1 REVERT JUMPDEST PUSH1 0x1 PUSH1 0x0 CALLER PUSH20 0xFFFFFFFFFFFFFFFFFFFFFFFFFFFFFFFFFFFFFFFF AND PUSH20 0xFFFFFFFFFFFFFFFFFFFFFFFFFFFFFFFFFFFFFFFF AND DUP2 MSTORE PUSH1 0x20 ADD SWAP1 DUP2 MSTORE PUSH1 0x20 ADD PUSH1 0x0 KECCAK256 SLOAD DUP2 GT ISZERO PUSH2 0x25C JUMPI PUSH1 0x40 MLOAD PUSH32 0x8C379A000000000000000000000000000000000000000000000000000000000 DUP2 MSTORE PUSH1 0x4 ADD PUSH2 0x253 SWAP1 PUSH2 0x6A5 JUMP JUMPDEST PUSH1 0x40 MLOAD DUP1 SWAP2 SUB SWAP1 REVERT JUMPDEST DUP1 PUSH1 0x1 PUSH1 0x0 CALLER PUSH20 0xFFFFFFFFFFFFFFFFFFFFFFFFFFFFFFFFFFFFFFFF AND PUSH20 0xFFFFFFFFFFFFFFFFFFFFFFFFFFFFFFFFFFFFFFFF AND DUP2 MSTORE PUSH1 0x20 ADD SWAP1 DUP2 MSTORE PUSH1 0x20 ADD PUSH1 0x0 KECCAK256 PUSH1 0x0 DUP3 DUP3 SLOAD PUSH2 0x2AB SWAP2 SWAP1 PUSH2 0x6F4 JUMP JUMPDEST SWAP3 POP POP DUP2 SWAP1 SSTORE POP CALLER PUSH20 0xFFFFFFFFFFFFFFFFFFFFFFFFFFFFFFFFFFFFFFFF AND PUSH2 0x8FC DUP3 SWAP1 DUP2 ISZERO MUL SWAP1 PUSH1 0x40 MLOAD PUSH1 0x0 PUSH1 0x40 MLOAD DUP1 DUP4 SUB DUP2 DUP6 DUP9 DUP9 CALL SWAP4 POP POP POP POP ISZERO DUP1 ISZERO PUSH2 0x2F8 JUMPI RETURNDATASIZE PUSH1 0x0 DUP1 RETURNDATACOPY RETURNDATASIZE PUSH1 0x0 REVERT JUMPDEST POP POP JUMP JUMPDEST PUSH1 0x0 PUSH1 0x1 PUSH1 0x0 CALLER PUSH20 0xFFFFFFFFFFFFFFFFFFFFFFFFFFFFFFFFFFFFFFFF AND PUSH20 0xFFFFFFFFFFFFFFFFFFFFFFFFFFFFFFFFFFFFFFFF AND DUP2 MSTORE PUSH1 0x20 ADD SWAP1 DUP2 MSTORE PUSH1 0x20 ADD PUSH1 0x0 KECCAK256 SLOAD SWAP1 POP SWAP1 JUMP JUMPDEST PUSH1 0x0 DUP1 SLOAD SWAP1 PUSH2 0x100 EXP SWAP1 DIV PUSH20 0xFFFFFFFFFFFFFFFFFFFFFFFFFFFFFFFFFFFFFFFF AND PUSH20 0xFFFFFFFFFFFFFFFFFFFFFFFFFFFFFFFFFFFFFFFF AND CALLER PUSH20 0xFFFFFFFFFFFFFFFFFFFFFFFFFFFFFFFFFFFFFFFF AND EQ PUSH2 0x3D1 JUMPI PUSH1 0x40 MLOAD PUSH32 0x8C379A000000000000000000000000000000000000000000000000000000000 DUP2 MSTORE PUSH1 0x4 ADD PUSH2 0x3C8 SWAP1 PUSH2 0x79A JUMP JUMPDEST PUSH1 0x40 MLOAD DUP1 SWAP2 SUB SWAP1 REVERT JUMPDEST DUP1 PUSH1 0x2 DUP2 SWAP1 SSTORE POP POP JUMP JUMPDEST CALLVALUE PUSH1 0x1 PUSH1 0x0 CALLER PUSH20 0xFFFFFFFFFFFFFFFFFFFFFFFFFFFFFFFFFFFFFFFF AND PUSH20 0xFFFFFFFFFFFFFFFFFFFFFFFFFFFFFFFFFFFFFFFF AND DUP2 MSTORE PUSH1 0x20 ADD SWAP1 DUP2 MSTORE PUSH1 0x20 ADD PUSH1 0x0 KECCAK256 PUSH1 0x0 DUP3 DUP3 SLOAD PUSH2 0x42A SWAP2 SWAP1 PUSH2 0x7BA JUMP JUMPDEST SWAP3 POP POP DUP2 SWAP1 SSTORE POP JUMP JUMPDEST PUSH1 0x1 PUSH1 0x20 MSTORE DUP1 PUSH1 0x0 MSTORE PUSH1 0x40 PUSH1 0x0 KECCAK256 PUSH1 0x0 SWAP2 POP SWAP1 POP SLOAD DUP2 JUMP JUMPDEST PUSH1 0x0 DUP1 SLOAD SWAP1 PUSH2 0x100 EXP SWAP1 DIV PUSH20 0xFFFFFFFFFFFFFFFFFFFFFFFFFFFFFFFFFFFFFFFF AND DUP2 JUMP JUMPDEST PUSH1 0x0 DUP2 SWAP1 POP SWAP2 SWAP1 POP JUMP JUMPDEST PUSH2 0x482 DUP2 PUSH2 0x46F JUMP JUMPDEST DUP3 MSTORE POP POP JUMP JUMPDEST PUSH1 0x0 PUSH1 0x20 DUP3 ADD SWAP1 POP PUSH2 0x49D PUSH1 0x0 DUP4 ADD DUP5 PUSH2 0x479 JUMP JUMPDEST SWAP3 SWAP2 POP POP JUMP JUMPDEST PUSH1 0x0 DUP1 REVERT JUMPDEST PUSH2 0x4B1 DUP2 PUSH2 0x46F JUMP JUMPDEST DUP2 EQ PUSH2 0x4BC JUMPI PUSH1 0x0 DUP1 REVERT JUMPDEST POP JUMP JUMPDEST PUSH1 0x0 DUP2 CALLDATALOAD SWAP1 POP PUSH2 0x4CE DUP2 PUSH2 0x4A8 JUMP JUMPDEST SWAP3 SWAP2 POP POP JUMP JUMPDEST PUSH1 0x0 PUSH1 0x20 DUP3 DUP5 SUB SLT ISZERO PUSH2 0x4EA JUMPI PUSH2 0x4E9 PUSH2 0x4A3 JUMP JUMPDEST JUMPDEST PUSH1 0x0 PUSH2 0x4F8 DUP5 DUP3 DUP6 ADD PUSH2 0x4BF JUMP JUMPDEST SWAP2 POP POP SWAP3 SWAP2 POP POP JUMP JUMPDEST PUSH1 0x0 PUSH20 0xFFFFFFFFFFFFFFFFFFFFFFFFFFFFFFFFFFFFFFFF DUP3 AND SWAP1 POP SWAP2 SWAP1 POP JUMP JUMPDEST PUSH1 0x0 PUSH2 0x52C DUP3 PUSH2 0x501 JUMP JUMPDEST SWAP1 POP SWAP2 SWAP1 POP JUMP JUMPDEST PUSH2 0x53C DUP2 PUSH2 0x521 JUMP JUMPDEST DUP2 EQ PUSH2 0x547 JUMPI PUSH1 0x0 DUP1 REVERT JUMPDEST POP JUMP JUMPDEST PUSH1 0x0 DUP2 CALLDATALOAD SWAP1 POP PUSH2 0x559 DUP2 PUSH2 0x533 JUMP JUMPDEST SWAP3 SWAP2 POP POP JUMP JUMPDEST PUSH1 0x0 PUSH1 0x20 DUP3 DUP5 SUB SLT ISZERO PUSH2 0x575 JUMPI PUSH2 0x574 PUSH2 0x4A3 JUMP JUMPDEST JUMPDEST PUSH1 0x0 PUSH2 0x583 DUP5 DUP3 DUP6 ADD PUSH2 0x54A JUMP JUMPDEST SWAP2 POP POP SWAP3 SWAP2 POP POP JUMP JUMPDEST PUSH2 0x595 DUP2 PUSH2 0x521 JUMP JUMPDEST DUP3 MSTORE POP POP JUMP JUMPDEST PUSH1 0x0 PUSH1 0x20 DUP3 ADD SWAP1 POP PUSH2 0x5B0 PUSH1 0x0 DUP4 ADD DUP5 PUSH2 0x58C JUMP JUMPDEST SWAP3 SWAP2 POP POP JUMP JUMPDEST PUSH1 0x0 DUP3 DUP3 MSTORE PUSH1 0x20 DUP3 ADD SWAP1 POP SWAP3 SWAP2 POP POP JUMP JUMPDEST PUSH32 0x446562697420616D6F756E74206578636565647320746865206C696D69742100 PUSH1 0x0 DUP3 ADD MSTORE POP JUMP JUMPDEST PUSH1 0x0 PUSH2 0x5FD PUSH1 0x1F DUP4 PUSH2 0x5B6 JUMP JUMPDEST SWAP2 POP PUSH2 0x608 DUP3 PUSH2 0x5C7 JUMP JUMPDEST PUSH1 0x20 DUP3 ADD SWAP1 POP SWAP2 SWAP1 POP JUMP JUMPDEST PUSH1 0x0 PUSH1 0x20 DUP3 ADD SWAP1 POP DUP2 DUP2 SUB PUSH1 0x0 DUP4 ADD MSTORE PUSH2 0x62C DUP2 PUSH2 0x5F0 JUMP JUMPDEST SWAP1 POP SWAP2 SWAP1 POP JUMP JUMPDEST PUSH32 0x446562697420616D6F756E742065786365656473207468652072656D61696E69 PUSH1 0x0 DUP3 ADD MSTORE PUSH32 0x6E672062616C616E636521000000000000000000000000000000000000000000 PUSH1 0x20 DUP3 ADD MSTORE POP JUMP JUMPDEST PUSH1 0x0 PUSH2 0x68F PUSH1 0x2B DUP4 PUSH2 0x5B6 JUMP JUMPDEST SWAP2 POP PUSH2 0x69A DUP3 PUSH2 0x633 JUMP JUMPDEST PUSH1 0x40 DUP3 ADD SWAP1 POP SWAP2 SWAP1 POP JUMP JUMPDEST PUSH1 0x0 PUSH1 0x20 DUP3 ADD SWAP1 POP DUP2 DUP2 SUB PUSH1 0x0 DUP4 ADD MSTORE PUSH2 0x6BE DUP2 PUSH2 0x682 JUMP JUMPDEST SWAP1 POP SWAP2 SWAP1 POP JUMP JUMPDEST PUSH32 0x4E487B7100000000000000000000000000000000000000000000000000000000 PUSH1 0x0 MSTORE PUSH1 0x11 PUSH1 0x4 MSTORE PUSH1 0x24 PUSH1 0x0 REVERT JUMPDEST PUSH1 0x0 PUSH2 0x6FF DUP3 PUSH2 0x46F JUMP JUMPDEST SWAP2 POP PUSH2 0x70A DUP4 PUSH2 0x46F JUMP JUMPDEST SWAP3 POP DUP3 DUP3 SUB SWAP1 POP DUP2 DUP2 GT ISZERO PUSH2 0x722 JUMPI PUSH2 0x721 PUSH2 0x6C5 JUMP JUMPDEST JUMPDEST SWAP3 SWAP2 POP POP JUMP JUMPDEST PUSH32 0x4F6E6C792061646D696E2063616E20736574207468652077697468647261776C PUSH1 0x0 DUP3 ADD MSTORE PUSH32 0x206C696D69742100000000000000000000000000000000000000000000000000 PUSH1 0x20 DUP3 ADD MSTORE POP JUMP JUMPDEST PUSH1 0x0 PUSH2 0x784 PUSH1 0x27 DUP4 PUSH2 0x5B6 JUMP JUMPDEST SWAP2 POP PUSH2 0x78F DUP3 PUSH2 0x728 JUMP JUMPDEST PUSH1 0x40 DUP3 ADD SWAP1 POP SWAP2 SWAP1 POP JUMP JUMPDEST PUSH1 0x0 PUSH1 0x20 DUP3 ADD SWAP1 POP DUP2 DUP2 SUB PUSH1 0x0 DUP4 ADD MSTORE PUSH2 0x7B3 DUP2 PUSH2 0x777 JUMP JUMPDEST SWAP1 POP SWAP2 SWAP1 POP JUMP JUMPDEST PUSH1 0x0 PUSH2 0x7C5 DUP3 PUSH2 0x46F JUMP JUMPDEST SWAP2 POP PUSH2 0x7D0 DUP4 PUSH2 0x46F JUMP JUMPDEST SWAP3 POP DUP3 DUP3 ADD SWAP1 POP DUP1 DUP3 GT ISZERO PUSH2 0x7E8 JUMPI PUSH2 0x7E7 PUSH2 0x6C5 JUMP JUMPDEST JUMPDEST SWAP3 SWAP2 POP POP JUMP INVALID LOG2 PUSH5 0x6970667358 0x22 SLT KECCAK256 SWAP6 SWAP1 SWAP13 0xDF 0xBE 0xC5 SUB 0xF MOD PUSH17 0xEE643DEDC35D18B7787CFA3E5C21E0EC8B SWAP14 SLT SWAP4 0xE7 0xB2 PUSH5 0x736F6C6343 STOP ADDMOD SLT STOP CALLER "
				},
				"gasEstimates": {
					"creation": {
						"codeDepositCost": "416800",
						"executionCost": "46835",
						"totalCost": "463635"
					},
					"external": {
						"admin()": "2577",
						"balance(address)": "2858",
						"deposit()": "infinite",
						"setWithdrawlLimit(uint256)": "24687",
						"viewBalance()": "2571",
						"withdraw(uint256)": "infinite",
						"withdrawlLimit()": "2430"
					}
				},
				"methodIdentifiers": {
					"admin()": "f851a440",
					"balance(address)": "e3d670d7",
					"deposit()": "d0e30db0",
					"setWithdrawlLimit(uint256)": "ce1bb61d",
					"viewBalance()": "3ff1e05b",
					"withdraw(uint256)": "2e1a7d4d",
					"withdrawlLimit()": "137631b9"
				}
			},
			"storageLayout": {
				"storage": [
					{
						"astId": 3,
						"contract": "contracts/3_Ballot.sol:prototype",
						"label": "admin",
						"offset": 0,
						"slot": "0",
						"type": "t_address"
					},
					{
						"astId": 7,
						"contract": "contracts/3_Ballot.sol:prototype",
						"label": "balance",
						"offset": 0,
						"slot": "1",
						"type": "t_mapping(t_address,t_uint256)"
					},
					{
						"astId": 9,
						"contract": "contracts/3_Ballot.sol:prototype",
						"label": "withdrawlLimit",
						"offset": 0,
						"slot": "2",
						"type": "t_uint256"
					}
				],
				"types": {
					"t_address": {
						"encoding": "inplace",
						"label": "address",
						"numberOfBytes": "20"
					},
					"t_mapping(t_address,t_uint256)": {
						"encoding": "mapping",
						"key": "t_address",
						"label": "mapping(address => uint256)",
						"numberOfBytes": "32",
						"value": "t_uint256"
					},
					"t_uint256": {
						"encoding": "inplace",
						"label": "uint256",
						"numberOfBytes": "32"
					}
				}
			},
			"userdoc": {
				"kind": "user",
				"methods": {},
				"version": 1
			}
		}
	}
}